{
  "_format": "hh-sol-artifact-1",
  "contractName": "FlightInsurance",
  "sourceName": "contracts/FlightInsurance.sol",
  "abi": [
    {
      "anonymous": false,
      "inputs": [
        {
          "indexed": false,
          "internalType": "uint256",
          "name": "policyId",
          "type": "uint256"
        },
        {
          "indexed": false,
          "internalType": "address",
          "name": "policyholder",
          "type": "address"
        },
        {
          "indexed": false,
          "internalType": "uint256",
          "name": "amount",
          "type": "uint256"
        }
      ],
      "name": "ClaimPaid",
      "type": "event"
    },
    {
      "anonymous": false,
      "inputs": [
        {
          "indexed": true,
          "internalType": "address",
          "name": "previousOwner",
          "type": "address"
        },
        {
          "indexed": true,
          "internalType": "address",
          "name": "newOwner",
          "type": "address"
        }
      ],
      "name": "OwnershipTransferred",
      "type": "event"
    },
    {
      "anonymous": false,
      "inputs": [
        {
          "indexed": false,
          "internalType": "uint256",
          "name": "policyId",
          "type": "uint256"
        },
        {
          "indexed": false,
          "internalType": "address",
          "name": "policyholder",
          "type": "address"
        },
        {
          "indexed": false,
          "internalType": "string",
          "name": "flightNumber",
          "type": "string"
        }
      ],
      "name": "PolicyCreated",
      "type": "event"
    },
    {
      "inputs": [
        {
          "internalType": "string",
          "name": "flightNumber",
          "type": "string"
        },
        {
          "internalType": "uint256",
          "name": "departureTime",
          "type": "uint256"
        },
        {
          "internalType": "uint256",
          "name": "coverageAmount",
          "type": "uint256"
        }
      ],
      "name": "createPolicy",
      "outputs": [
        {
          "internalType": "uint256",
          "name": "",
          "type": "uint256"
        }
      ],
      "stateMutability": "payable",
      "type": "function"
    },
    {
      "inputs": [
        {
          "internalType": "uint256",
          "name": "policyId",
          "type": "uint256"
        }
      ],
      "name": "getPolicy",
      "outputs": [
        {
          "internalType": "address",
          "name": "policyholder",
          "type": "address"
        },
        {
          "internalType": "string",
          "name": "flightNumber",
          "type": "string"
        },
        {
          "internalType": "uint256",
          "name": "departureTime",
          "type": "uint256"
        },
        {
          "internalType": "uint256",
          "name": "coverageAmount",
          "type": "uint256"
        },
        {
          "internalType": "bool",
          "name": "isActive",
          "type": "bool"
        },
        {
          "internalType": "bool",
          "name": "isPaid",
          "type": "bool"
        }
      ],
      "stateMutability": "view",
      "type": "function"
    },
    {
      "inputs": [
        {
          "internalType": "uint256",
          "name": "policyId",
          "type": "uint256"
        }
      ],
      "name": "isPolicyActive",
      "outputs": [
        {
          "internalType": "bool",
          "name": "",
          "type": "bool"
        }
      ],
      "stateMutability": "view",
      "type": "function"
    },
    {
      "inputs": [],
      "name": "nextPolicyId",
      "outputs": [
        {
          "internalType": "uint256",
          "name": "",
          "type": "uint256"
        }
      ],
      "stateMutability": "view",
      "type": "function"
    },
    {
      "inputs": [],
      "name": "owner",
      "outputs": [
        {
          "internalType": "address",
          "name": "",
          "type": "address"
        }
      ],
      "stateMutability": "view",
      "type": "function"
    },
    {
      "inputs": [
        {
          "internalType": "uint256",
          "name": "",
          "type": "uint256"
        }
      ],
      "name": "policies",
      "outputs": [
        {
          "internalType": "address",
          "name": "policyholder",
          "type": "address"
        },
        {
          "internalType": "string",
          "name": "flightNumber",
          "type": "string"
        },
        {
          "internalType": "uint256",
          "name": "departureTime",
          "type": "uint256"
        },
        {
          "internalType": "uint256",
          "name": "coverageAmount",
          "type": "uint256"
        },
        {
          "internalType": "bool",
          "name": "isActive",
          "type": "bool"
        },
        {
          "internalType": "bool",
          "name": "isPaid",
          "type": "bool"
        }
      ],
      "stateMutability": "view",
      "type": "function"
    },
    {
      "inputs": [
        {
          "internalType": "uint256",
          "name": "policyId",
          "type": "uint256"
        }
      ],
      "name": "processClaim",
      "outputs": [],
      "stateMutability": "nonpayable",
      "type": "function"
    },
    {
      "inputs": [],
      "name": "renounceOwnership",
      "outputs": [],
      "stateMutability": "nonpayable",
      "type": "function"
    },
    {
      "inputs": [
        {
          "internalType": "address",
          "name": "newOwner",
          "type": "address"
        }
      ],
      "name": "transferOwnership",
      "outputs": [],
      "stateMutability": "nonpayable",
      "type": "function"
    }
  ],
  "bytecode": "0x6080604052600160025534801561001557600080fd5b5061003261002761003760201b60201c565b61003f60201b60201c565b610103565b600033905090565b60008060009054906101000a900473ffffffffffffffffffffffffffffffffffffffff169050816000806101000a81548173ffffffffffffffffffffffffffffffffffffffff021916908373ffffffffffffffffffffffffffffffffffffffff1602179055508173ffffffffffffffffffffffffffffffffffffffff168173ffffffffffffffffffffffffffffffffffffffff167f8be0079c531659141344cd1fd0a4f28419497f9722a3daafe3b4186f6b6457e060405160405180910390a35050565b6114fe806101126000396000f3fe6080604052600436106100865760003560e01c8063bd8afa4611610059578063bd8afa4614610138578063cad0b8db14610175578063d3e89483146101a0578063e93b2a34146101e2578063f2fde38b1461021257610086565b80632b07fce31461008b578063715018a6146100cd5780637257dfc9146100e45780638da5cb5b1461010d575b600080fd5b34801561009757600080fd5b506100b260048036038101906100ad9190610ade565b61023b565b6040516100c496959493929190610c06565b60405180910390f35b3480156100d957600080fd5b506100e26103cd565b005b3480156100f057600080fd5b5061010b60048036038101906101069190610ade565b6103e1565b005b34801561011957600080fd5b506101226105b3565b60405161012f9190610c6e565b60405180910390f35b34801561014457600080fd5b5061015f600480360381019061015a9190610ade565b6105dc565b60405161016c9190610c89565b60405180910390f35b34801561018157600080fd5b5061018a610609565b6040516101979190610ca4565b60405180910390f35b3480156101ac57600080fd5b506101c760048036038101906101c29190610ade565b61060f565b6040516101d996959493929190610c06565b60405180910390f35b6101fc60048036038101906101f79190610df4565b61070d565b6040516102099190610ca4565b60405180910390f35b34801561021e57600080fd5b5061023960048036038101906102349190610e8f565b6108c7565b005b600060606000806000806000600160008981526020019081526020016000206040518060c00160405290816000820160009054906101000a900473ffffffffffffffffffffffffffffffffffffffff1673ffffffffffffffffffffffffffffffffffffffff1673ffffffffffffffffffffffffffffffffffffffff1681526020016001820180546102cb90610eeb565b80601f01602080910402602001604051908101604052809291908181526020018280546102f790610eeb565b80156103445780601f1061031957610100808354040283529160200191610344565b820191906000526020600020905b81548152906001019060200180831161032757829003601f168201915b5050505050815260200160028201548152602001600382015481526020016004820160009054906101000a900460ff161515151581526020016004820160019054906101000a900460ff1615151515815250509050806000015181602001518260400151836060015184608001518560a001519650965096509650965096505091939550919395565b6103d561094a565b6103df60006109c8565b565b6103e961094a565b60006001600083815260200190815260200160002090508060040160009054906101000a900460ff16610451576040517f08c379a000000000000000000000000000000000000000000000000000000000815260040161044890610f68565b60405180910390fd5b8060040160019054906101000a900460ff16156104a3576040517f08c379a000000000000000000000000000000000000000000000000000000000815260040161049a90610fd4565b60405180910390fd5b60018160040160016101000a81548160ff02191690831515021790555060008160040160006101000a81548160ff0219169083151502179055508060000160009054906101000a900473ffffffffffffffffffffffffffffffffffffffff1673ffffffffffffffffffffffffffffffffffffffff166108fc82600301549081150290604051600060405180830381858888f1935050505015801561054b573d6000803e3d6000fd5b507faf3c8fdd75d667f71d36d7840b8ef9086c516c9b047ad6a83a5a66151342123a828260000160009054906101000a900473ffffffffffffffffffffffffffffffffffffffff1683600301546040516105a793929190610ff4565b60405180910390a15050565b60008060009054906101000a900473ffffffffffffffffffffffffffffffffffffffff16905090565b60006001600083815260200190815260200160002060040160009054906101000a900460ff169050919050565b60025481565b60016020528060005260406000206000915090508060000160009054906101000a900473ffffffffffffffffffffffffffffffffffffffff169080600101805461065890610eeb565b80601f016020809104026020016040519081016040528092919081815260200182805461068490610eeb565b80156106d15780601f106106a6576101008083540402835291602001916106d1565b820191906000526020600020905b8154815290600101906020018083116106b457829003601f168201915b5050505050908060020154908060030154908060040160009054906101000a900460ff16908060040160019054906101000a900460ff16905086565b600081341015610752576040517f08c379a000000000000000000000000000000000000000000000000000000000815260040161074990611077565b60405180910390fd5b600060025490506040518060c001604052803373ffffffffffffffffffffffffffffffffffffffff168152602001868152602001858152602001848152602001600115158152602001600015158152506001600083815260200190815260200160002060008201518160000160006101000a81548173ffffffffffffffffffffffffffffffffffffffff021916908373ffffffffffffffffffffffffffffffffffffffff16021790555060208201518160010190816108119190611243565b50604082015181600201556060820151816003015560808201518160040160006101000a81548160ff02191690831515021790555060a08201518160040160016101000a81548160ff0219169083151502179055509050506002600081548092919061087c90611344565b91905055507f21d0178f0cde2aed24022db30651dabafb4bbe431fb787fbc92113304d8e35498133876040516108b49392919061138c565b60405180910390a1809150509392505050565b6108cf61094a565b600073ffffffffffffffffffffffffffffffffffffffff168173ffffffffffffffffffffffffffffffffffffffff160361093e576040517f08c379a00000000000000000000000000000000000000000000000000000000081526004016109359061143c565b60405180910390fd5b610947816109c8565b50565b610952610a8c565b73ffffffffffffffffffffffffffffffffffffffff166109706105b3565b73ffffffffffffffffffffffffffffffffffffffff16146109c6576040517f08c379a00000000000000000000000000000000000000000000000000000000081526004016109bd906114a8565b60405180910390fd5b565b60008060009054906101000a900473ffffffffffffffffffffffffffffffffffffffff169050816000806101000a81548173ffffffffffffffffffffffffffffffffffffffff021916908373ffffffffffffffffffffffffffffffffffffffff1602179055508173ffffffffffffffffffffffffffffffffffffffff168173ffffffffffffffffffffffffffffffffffffffff167f8be0079c531659141344cd1fd0a4f28419497f9722a3daafe3b4186f6b6457e060405160405180910390a35050565b600033905090565b6000604051905090565b600080fd5b600080fd5b6000819050919050565b610abb81610aa8565b8114610ac657600080fd5b50565b600081359050610ad881610ab2565b92915050565b600060208284031215610af457610af3610a9e565b5b6000610b0284828501610ac9565b91505092915050565b600073ffffffffffffffffffffffffffffffffffffffff82169050919050565b6000610b3682610b0b565b9050919050565b610b4681610b2b565b82525050565b600081519050919050565b600082825260208201905092915050565b60005b83811015610b86578082015181840152602081019050610b6b565b60008484015250505050565b6000601f19601f8301169050919050565b6000610bae82610b4c565b610bb88185610b57565b9350610bc8818560208601610b68565b610bd181610b92565b840191505092915050565b610be581610aa8565b82525050565b60008115159050919050565b610c0081610beb565b82525050565b600060c082019050610c1b6000830189610b3d565b8181036020830152610c2d8188610ba3565b9050610c3c6040830187610bdc565b610c496060830186610bdc565b610c566080830185610bf7565b610c6360a0830184610bf7565b979650505050505050565b6000602082019050610c836000830184610b3d565b92915050565b6000602082019050610c9e6000830184610bf7565b92915050565b6000602082019050610cb96000830184610bdc565b92915050565b600080fd5b600080fd5b7f4e487b7100000000000000000000000000000000000000000000000000000000600052604160045260246000fd5b610d0182610b92565b810181811067ffffffffffffffff82111715610d2057610d1f610cc9565b5b80604052505050565b6000610d33610a94565b9050610d3f8282610cf8565b919050565b600067ffffffffffffffff821115610d5f57610d5e610cc9565b5b610d6882610b92565b9050602081019050919050565b82818337600083830152505050565b6000610d97610d9284610d44565b610d29565b905082815260208101848484011115610db357610db2610cc4565b5b610dbe848285610d75565b509392505050565b600082601f830112610ddb57610dda610cbf565b5b8135610deb848260208601610d84565b91505092915050565b600080600060608486031215610e0d57610e0c610a9e565b5b600084013567ffffffffffffffff811115610e2b57610e2a610aa3565b5b610e3786828701610dc6565b9350506020610e4886828701610ac9565b9250506040610e5986828701610ac9565b9150509250925092565b610e6c81610b2b565b8114610e7757600080fd5b50565b600081359050610e8981610e63565b92915050565b600060208284031215610ea557610ea4610a9e565b5b6000610eb384828501610e7a565b91505092915050565b7f4e487b7100000000000000000000000000000000000000000000000000000000600052602260045260246000fd5b60006002820490506001821680610f0357607f821691505b602082108103610f1657610f15610ebc565b5b50919050565b7f506f6c696379206973206e6f7420616374697665000000000000000000000000600082015250565b6000610f52601483610b57565b9150610f5d82610f1c565b602082019050919050565b60006020820190508181036000830152610f8181610f45565b9050919050565b7f436c61696d20616c726561647920706169640000000000000000000000000000600082015250565b6000610fbe601283610b57565b9150610fc982610f88565b602082019050919050565b60006020820190508181036000830152610fed81610fb1565b9050919050565b60006060820190506110096000830186610bdc565b6110166020830185610b3d565b6110236040830184610bdc565b949350505050565b7f5072656d69756d207061796d656e7420696e73756666696369656e7400000000600082015250565b6000611061601c83610b57565b915061106c8261102b565b602082019050919050565b6000602082019050818103600083015261109081611054565b9050919050565b60008190508160005260206000209050919050565b60006020601f8301049050919050565b600082821b905092915050565b6000600883026110f97fffffffffffffffffffffffffffffffffffffffffffffffffffffffffffffffff826110bc565b61110386836110bc565b95508019841693508086168417925050509392505050565b6000819050919050565b600061114061113b61113684610aa8565b61111b565b610aa8565b9050919050565b6000819050919050565b61115a83611125565b61116e61116682611147565b8484546110c9565b825550505050565b600090565b611183611176565b61118e818484611151565b505050565b5b818110156111b2576111a760008261117b565b600181019050611194565b5050565b601f8211156111f7576111c881611097565b6111d1846110ac565b810160208510156111e0578190505b6111f46111ec856110ac565b830182611193565b50505b505050565b600082821c905092915050565b600061121a600019846008026111fc565b1980831691505092915050565b60006112338383611209565b9150826002028217905092915050565b61124c82610b4c565b67ffffffffffffffff81111561126557611264610cc9565b5b61126f8254610eeb565b61127a8282856111b6565b600060209050601f8311600181146112ad576000841561129b578287015190505b6112a58582611227565b86555061130d565b601f1984166112bb86611097565b60005b828110156112e3578489015182556001820191506020850194506020810190506112be565b8683101561130057848901516112fc601f891682611209565b8355505b6001600288020188555050505b505050505050565b7f4e487b7100000000000000000000000000000000000000000000000000000000600052601160045260246000fd5b600061134f82610aa8565b91507fffffffffffffffffffffffffffffffffffffffffffffffffffffffffffffffff820361138157611380611315565b5b600182019050919050565b60006060820190506113a16000830186610bdc565b6113ae6020830185610b3d565b81810360408301526113c08184610ba3565b9050949350505050565b7f4f776e61626c653a206e6577206f776e657220697320746865207a65726f206160008201527f6464726573730000000000000000000000000000000000000000000000000000602082015250565b6000611426602683610b57565b9150611431826113ca565b604082019050919050565b6000602082019050818103600083015261145581611419565b9050919050565b7f4f776e61626c653a2063616c6c6572206973206e6f7420746865206f776e6572600082015250565b6000611492602083610b57565b915061149d8261145c565b602082019050919050565b600060208201905081810360008301526114c181611485565b905091905056fea2646970667358221220a0b5995e9d2b40f73d9b30faaf3f91036d018a3b2c66b51be21004bc6ac0fa3264736f6c63430008110033",
  "linkReferences": {},
  "deployedLinkReferences": {}
}